{
  "contractName": "saveToIPFS",
  "abi": [
    {
      "anonymous": false,
      "inputs": [
        {
          "indexed": true,
          "internalType": "address",
          "name": "_owner",
          "type": "address"
        },
        {
          "indexed": false,
          "internalType": "string",
          "name": "_ipfsHash",
          "type": "string"
        },
        {
          "indexed": false,
          "internalType": "string",
          "name": "_description",
          "type": "string"
        },
        {
          "indexed": false,
          "internalType": "uint256",
          "name": "_uploadedOn",
          "type": "uint256"
        }
      ],
      "name": "LogTicketUploaded",
      "type": "event"
    },
    {
      "stateMutability": "nonpayable",
      "type": "fallback"
    },
    {
      "inputs": [
        {
          "internalType": "address",
          "name": "",
          "type": "address"
        },
        {
          "internalType": "uint256",
          "name": "",
          "type": "uint256"
        }
      ],
      "name": "ownerToTickets",
      "outputs": [
        {
          "internalType": "string",
          "name": "ipfsHash",
          "type": "string"
        },
        {
          "internalType": "string",
          "name": "description",
          "type": "string"
        },
        {
          "internalType": "uint256",
          "name": "uploadedOn",
          "type": "uint256"
        }
      ],
      "stateMutability": "view",
      "type": "function",
      "constant": true
    },
    {
      "inputs": [
        {
          "internalType": "string",
          "name": "_ipfsHash",
          "type": "string"
        },
        {
          "internalType": "string",
          "name": "_description",
          "type": "string"
        }
      ],
      "name": "uploadTicket",
      "outputs": [
        {
          "internalType": "bool",
          "name": "_success",
          "type": "bool"
        }
      ],
      "stateMutability": "nonpayable",
      "type": "function"
    },
    {
      "inputs": [
        {
          "internalType": "address",
          "name": "_owner",
          "type": "address"
        }
      ],
      "name": "getTicketCount",
      "outputs": [
        {
          "internalType": "uint256",
          "name": "",
          "type": "uint256"
        }
      ],
      "stateMutability": "view",
      "type": "function",
      "constant": true
    },
    {
      "inputs": [
        {
          "internalType": "address",
          "name": "_owner",
          "type": "address"
        },
        {
          "internalType": "uint8",
          "name": "_index",
          "type": "uint8"
        }
      ],
      "name": "getTicket",
      "outputs": [
        {
          "internalType": "string",
          "name": "_ipfsHash",
          "type": "string"
        },
        {
          "internalType": "string",
          "name": "_description",
          "type": "string"
        },
        {
          "internalType": "uint256",
          "name": "_uploadedOn",
          "type": "uint256"
        }
      ],
      "stateMutability": "view",
      "type": "function",
      "constant": true
    }
  ],
  "bytecode": "0x608060405234801561001057600080fd5b50610c09806100206000396000f3fe608060405234801561001057600080fd5b50600436106100505760003560e01c8063031083f9146100535780631e51748814610190578063aa60b386146102ca578063cff82e221461043457610051565b5b005b6100a26004803603604081101561006957600080fd5b81019080803573ffffffffffffffffffffffffffffffffffffffff169060200190929190803560ff16906020019092919050505061048c565b604051808060200180602001848152602001838103835286818151815260200191508051906020019080838360005b838110156100ec5780820151818401526020810190506100d1565b50505050905090810190601f1680156101195780820380516001836020036101000a031916815260200191505b50838103825285818151815260200191508051906020019080838360005b83811015610152578082015181840152602081019050610137565b50505050905090810190601f16801561017f5780820380516001836020036101000a031916815260200191505b509550505050505060405180910390f35b6101dc600480360360408110156101a657600080fd5b81019080803573ffffffffffffffffffffffffffffffffffffffff169060200190929190803590602001909291905050506106ea565b604051808060200180602001848152602001838103835286818151815260200191508051906020019080838360005b8381101561022657808201518184015260208101905061020b565b50505050905090810190601f1680156102535780820380516001836020036101000a031916815260200191505b50838103825285818151815260200191508051906020019080838360005b8381101561028c578082015181840152602081019050610271565b50505050905090810190601f1680156102b95780820380516001836020036101000a031916815260200191505b509550505050505060405180910390f35b61041a600480360360408110156102e057600080fd5b81019080803590602001906401000000008111156102fd57600080fd5b82018360208201111561030f57600080fd5b8035906020019184600183028401116401000000008311171561033157600080fd5b91908080601f016020809104026020016040519081016040528093929190818152602001838380828437600081840152601f19601f8201169050808301925050505050505091929192908035906020019064010000000081111561039457600080fd5b8201836020820111156103a657600080fd5b803590602001918460018302840111640100000000831117156103c857600080fd5b91908080601f016020809104026020016040519081016040528093929190818152602001838380828437600081840152601f19601f82011690508083019250505050505050919291929050505061085e565b604051808215151515815260200191505060405180910390f35b6104766004803603602081101561044a57600080fd5b81019080803573ffffffffffffffffffffffffffffffffffffffff169060200190929190505050610a89565b6040518082815260200191505060405180910390f35b60608060003373ffffffffffffffffffffffffffffffffffffffff168573ffffffffffffffffffffffffffffffffffffffff1614156104ca57600080fd5b60008460ff16101580156104e2575060ff8460ff1611155b6104eb57600080fd5b60008060008773ffffffffffffffffffffffffffffffffffffffff1673ffffffffffffffffffffffffffffffffffffffff168152602001908152602001600020805490501161053957600080fd5b60008060008773ffffffffffffffffffffffffffffffffffffffff1673ffffffffffffffffffffffffffffffffffffffff1681526020019081526020016000208560ff168154811061058757fe5b9060005260206000209060030201905080600001816001018260020154828054600181600116156101000203166002900480601f0160208091040260200160405190810160405280929190818152602001828054600181600116156101000203166002900480156106395780601f1061060e57610100808354040283529160200191610639565b820191906000526020600020905b81548152906001019060200180831161061c57829003601f168201915b50505050509250818054600181600116156101000203166002900480601f0160208091040260200160405190810160405280929190818152602001828054600181600116156101000203166002900480156106d55780601f106106aa576101008083540402835291602001916106d5565b820191906000526020600020905b8154815290600101906020018083116106b857829003601f168201915b50505050509150935093509350509250925092565b6000602052816000526040600020818154811061070357fe5b906000526020600020906003020160009150915050806000018054600181600116156101000203166002900480601f0160208091040260200160405190810160405280929190818152602001828054600181600116156101000203166002900480156107b05780601f10610785576101008083540402835291602001916107b0565b820191906000526020600020905b81548152906001019060200180831161079357829003601f168201915b505050505090806001018054600181600116156101000203166002900480601f01602080910402602001604051908101604052809291908181526020018280546001816001161561010002031660029004801561084e5780601f106108235761010080835404028352916020019161084e565b820191906000526020600020905b81548152906001019060200180831161083157829003601f168201915b5050505050908060020154905083565b6000602e83511461086e57600080fd5b61040082511061087d57600080fd5b600042905061088a610b0d565b60405180606001604052808681526020018581526020018381525090506000803373ffffffffffffffffffffffffffffffffffffffff1673ffffffffffffffffffffffffffffffffffffffff168152602001908152602001600020819080600181540180825580915050600190039060005260206000209060030201600090919091909150600082015181600001908051906020019061092b929190610b2e565b506020820151816001019080519060200190610948929190610b2e565b506040820151816002015550503373ffffffffffffffffffffffffffffffffffffffff167f1e899affb476c4a3946d523bb6bdf7805329c8e0c5d36813f7549d7adb244d72868685604051808060200180602001848152602001838103835286818151815260200191508051906020019080838360005b838110156109da5780820151818401526020810190506109bf565b50505050905090810190601f168015610a075780820380516001836020036101000a031916815260200191505b50838103825285818151815260200191508051906020019080838360005b83811015610a40578082015181840152602081019050610a25565b50505050905090810190601f168015610a6d5780820380516001836020036101000a031916815260200191505b509550505050505060405180910390a260019250505092915050565b60003373ffffffffffffffffffffffffffffffffffffffff168273ffffffffffffffffffffffffffffffffffffffff161415610ac457600080fd5b6000808373ffffffffffffffffffffffffffffffffffffffff1673ffffffffffffffffffffffffffffffffffffffff168152602001908152602001600020805490509050919050565b60405180606001604052806060815260200160608152602001600081525090565b828054600181600116156101000203166002900490600052602060002090601f016020900481019282601f10610b6f57805160ff1916838001178555610b9d565b82800160010185558215610b9d579182015b82811115610b9c578251825591602001919060010190610b81565b5b509050610baa9190610bae565b5090565b610bd091905b80821115610bcc576000816000905550600101610bb4565b5090565b9056fea2646970667358221220fedb770e56ae3e45dbfa3463b0139630999e19b16e58e6718cb9004738c48c8e64736f6c63430006080033",
  "immutableReferences": {},
  "source": "// SPDX-License-Identifier: GPL-3.0\npragma solidity ^0.6.8;\n\n/**\n * @title saveToIPFS\n * @author Manoj M\n * @notice This contract represents a registry of ticket ownership.\n * Due to storage limitations, tickets are stored on IPFS.\n * The IPFS hash along with metadata are stored onchain.\n */\n\ncontract saveToIPFS {\n\n    /**\n    * @title Represents a single ticket which is owned by someone.\n    */\n    struct Ticket {\n        string ipfsHash;        // Ticket hash\n        string description;     // Ticket description\n        uint256 uploadedOn;     // Uploaded timestamp\n    }\n    // Maps owner to their tickets\n    mapping (address => Ticket[]) public ownerToTickets;\n\n    /**\n    * @dev Indicates that a user has uploaded a new ticket\n    * @param _owner The owner of the image\n    * @param _ipfsHash The IPFS hash\n    * @param _description The ticket description\n    * @param _uploadedOn The upload timestamp\n    */\n    event LogTicketUploaded(\n        address indexed _owner,\n        string _ipfsHash,\n        string _description,\n        uint256 _uploadedOn\n    );\n\n    /**\n    * @dev This function is called for all messages sent to\n    * this contract (there is no other function).\n    * Sending Ether to this contract will cause an exception,\n    * because the fallback function does not have the `payable`\n    * modifier.\n    */\n     fallback() external {}\n\n    /**\n        * @notice associate an ticket entry with the owner i.e. sender address\n        * @param _ipfsHash The IPFS hash\n        * @param _description The image description\n        */\n    function uploadTicket(\n        string memory _ipfsHash,\n        string memory _description\n    ) public returns (bool _success) {\n\n        require(bytes(_ipfsHash).length == 46);\n        require(bytes(_description).length < 1024);\n\n        uint256 uploadedOn = now;\n        Ticket memory ticket = Ticket(\n            _ipfsHash,\n            _description,\n            uploadedOn\n        );\n\n        ownerToTickets[msg.sender].push(ticket);\n\n        emit LogTicketUploaded(\n            msg.sender,\n            _ipfsHash,\n            _description,\n            uploadedOn\n        );\n\n        _success = true;\n    }\n\n    /**\n    * @notice Returns the number of tickets associated with the given address\n    * @param _owner The owner address\n    * @return The number of images associated with a given address\n    */\n    function getTicketCount(address _owner)\n        public view\n        returns (uint256)\n    {\n        require(_owner != msg.sender);\n        return ownerToTickets[_owner].length;\n    }\n\n\n    /**\n    * @notice Returns the ticket at index in the ownership array\n    * @param _owner The owner address\n    * @param _index The index of the ticket to return\n    * @return _ipfsHash The IPFS hash\n    * @return _description The ticket description\n    * @return _uploadedOn The uploaded timestamp\n    */\n    function getTicket(address _owner, uint8 _index)\n        public view returns (\n        string memory _ipfsHash,\n        string memory _description,\n        uint256 _uploadedOn\n    ) {\n\n        require(_owner != msg.sender);\n        require(_index >= 0 && _index <= 2**8 - 1);\n        require(ownerToTickets[_owner].length > 0);\n\n        Ticket storage ticket = ownerToTickets[_owner][_index];\n\n        return (\n            ticket.ipfsHash,\n            ticket.description,\n            ticket.uploadedOn\n        );\n    }\n\n}\n",
  "sourcePath": "/home/manoj/Desktop/CED/cyphertrip/contracts/saveToIPFS.sol",
  "compiler": {
    "name": "solc",
    "version": "0.6.8+commit.0bbfe453.Emscripten.clang"
  },
  "schemaVersion": "3.2.0",
  "updatedAt": "2020-08-21T06:19:29.790Z",
  "networkType": "ethereum",
  "devdoc": {
    "author": "Manoj M",
    "methods": {
      "getTicket(address,uint8)": {
        "params": {
          "_index": "The index of the ticket to return",
          "_owner": "The owner address"
        },
        "returns": {
          "_description": "The ticket description",
          "_ipfsHash": "The IPFS hash",
          "_uploadedOn": "The uploaded timestamp"
        }
      },
      "getTicketCount(address)": {
        "params": {
          "_owner": "The owner address"
        },
        "returns": {
          "_0": "The number of images associated with a given address"
        }
      },
      "uploadTicket(string,string)": {
        "params": {
          "_description": "The image description",
          "_ipfsHash": "The IPFS hash"
        }
      }
    },
    "title": "saveToIPFS"
  },
  "userdoc": {
    "methods": {
      "getTicket(address,uint8)": {
        "notice": "Returns the ticket at index in the ownership array"
      },
      "getTicketCount(address)": {
        "notice": "Returns the number of tickets associated with the given address"
      },
      "uploadTicket(string,string)": {
        "notice": "associate an ticket entry with the owner i.e. sender address"
      }
    },
    "notice": "This contract represents a registry of ticket ownership. Due to storage limitations, tickets are stored on IPFS. The IPFS hash along with metadata are stored onchain."
  }
}